:1000000002008B8074E4F520F521C2A7C2A6C2A528
:10001000C2A430B3028002800AD2A47520007521E8
:1000200003802930B2028002800AD2A575200075B3
:100030002102801830B1028002800AD2A675200009
:100040007521018007D2A7E4F520F521C2A7C2A639
:10005000C2A5C2A4800020B702800280F9E521A2D7
:10006000E092A0A820A921E8C313F8E913F9E9A2B6
:10007000E092A1859080809222808AE4F5D07581FB
:0E00800022F520F52112000302000002007B91
:00000001FF
