:10000000020091898288838B00EC4D6036E4E0F633
:1000100008A31DBDFFF31C80F0B800118B00EC4D50
:100020006021E7F609081DBDFFF41C80F189828874
:10003000838B00EC4D600CE493F608A31DBDFFF329
:100040001C80F0228035780179007A007B207D0CBD
:100050007C0012001975B08075900375900275B020
:100060000175900175900075A007E580B4FE0985C3
:1000700020B075900375900280DB2280C9E4F5D032
:1000800075812C78207A0CF608DAFC120044020004
:040090000002007DED
:0C010000303132333435362B2D3D2A3F90
:00000001FF
