:10000000020058898288838B00EC4D6036E4E0F66C
:1000100008A31DBDFFF31C80F0B800118B00EC4D50
:100020006021E7F609081DBDFFF41C80F189828874
:10003000838B00EC4D600CE493F608A31DBDFFF329
:100040001C80F022E4F5D075812C78207A0CF6081B
:0B005000DAFC12010C02000002004468
:10010000303132333435363738394142020248789B
:100110000179007A007B207D0C7C0012001975802B
:100120003875A00175A00075808075A00175A000CC
:10013000C2902093028002800A7924878075A003F0
:1001400075A0022094028002800A7923878075A01E
:100150000375A0022095028002800A7922878075AB
:10016000A00375A0022096028002800A7921878070
:1001700075A00375A0022097028002800A7920876B
:100180008075A00375A002D290C2912093028002D4
:10019000800A7928878075A00375A00220940280C8
:1001A00002800A7927878075A00375A00220950236
:1001B0008002800A7926878075A00375A0022096A8
:1001C000028002800A7925878075A00375A002202D
:1001D00097028002800A7924878075A00375A002A7
:1001E000D291C2922093028002800A792C87807576
:1001F000A00375A0022094028002800A792B8780D8
:1002000075A00375A0022095028002800A792A87D2
:100210008075A00375A0022096028002800A7929C9
:10022000878075A00375A0022097028002800A795A
:1002300028878075A00375A002D29275800175A0F1
:0B0240000175A0000201302202010F36
:00000001FF
