:100000000200BF80378C2D8D2E8017758CFC758A71
:1000100018D28CA28DB382B04002800280F5C28DCE
:10002000C28CAC2DE52EFD152E7002152DED24FF92
:10003000EC6480347F4002800280D02280C78069D7
:10004000E4F520F521E4F522F523758901752400F6
:100050007525017526027527047528087529107500
:100060002A20752B40752C808524907C007D0212FF
:100070000003E525252CF5907C037D20120003E587
:1000800026252BF5907C007D06120003E527252A06
:10009000F5907C007D09120003E5282529F5907C68
:1000A000007D0B12000380CA228095E4F5D0758193
:1000B0002F78207A0FF608DAFC12003E02000002C8
:0200C00000AB93
:00000001FF
